{
  "contractName": "SimpleCounter",
  "abi": [
    {
      "inputs": [],
      "stateMutability": "nonpayable",
      "type": "constructor"
    },
    {
      "inputs": [],
      "name": "counter",
      "outputs": [
        {
          "internalType": "uint256",
          "name": "",
          "type": "uint256"
        }
      ],
      "stateMutability": "view",
      "type": "function"
    },
    {
      "inputs": [],
      "name": "owner",
      "outputs": [
        {
          "internalType": "address",
          "name": "",
          "type": "address"
        }
      ],
      "stateMutability": "view",
      "type": "function"
    },
    {
      "inputs": [],
      "name": "increment",
      "outputs": [],
      "stateMutability": "nonpayable",
      "type": "function"
    },
    {
      "inputs": [],
      "name": "decrement",
      "outputs": [],
      "stateMutability": "nonpayable",
      "type": "function"
    },
    {
      "inputs": [],
      "name": "reset",
      "outputs": [],
      "stateMutability": "nonpayable",
      "type": "function"
    },
    {
      "inputs": [],
      "name": "getCounter",
      "outputs": [
        {
          "internalType": "uint256",
          "name": "",
          "type": "uint256"
        }
      ],
      "stateMutability": "view",
      "type": "function"
    }
  ],
  "bytecode": "0x608060405234801561000f575f80fd5b505f80819055503360015f6101000a81548173ffffffffffffffffffffffffffffffffffffffff021916908373ffffffffffffffffffffffffffffffffffffffff160217905550610478806100635f395ff3fe608060405234801561000f575f80fd5b5060043610610060575f3560e01c80632baeceb71461006457806361bc221a1461006e5780638ada066e1461008c5780638da5cb5b146100aa578063d09de08a146100c8578063d826f88f146100d2575b5f80fd5b61006c6100dc565b005b610076610137565b6040516100839190610230565b60405180910390f35b61009461013c565b6040516100a19190610230565b60405180910390f35b6100b2610144565b6040516100bf9190610288565b60405180910390f35b6100d0610169565b005b6100da610181565b005b5f80541161011f576040517f08c379a0000000000000000000000000000000000000000000000000000000008152600401610116906102fb565b60405180910390fd5b5f8081548092919061013090610346565b9190505550565b5f5481565b5f8054905090565b60015f9054906101000a900473ffffffffffffffffffffffffffffffffffffffff1681565b5f8081548092919061017a9061036d565b9190505550565b60015f9054906101000a900473ffffffffffffffffffffffffffffffffffffffff1673ffffffffffffffffffffffffffffffffffffffff163373ffffffffffffffffffffffffffffffffffffffff1614610210576040517f08c379a000000000000000000000000000000000000000000000000000000000815260040161020790610424565b60405180910390fd5b5f8081905550565b5f819050919050565b61022a81610218565b82525050565b5f6020820190506102435f830184610221565b92915050565b5f73ffffffffffffffffffffffffffffffffffffffff82169050919050565b5f61027282610249565b9050919050565b61028281610268565b82525050565b5f60208201905061029b5f830184610279565b92915050565b5f82825260208201905092915050565b7f436f756e7465722063616e206e6f74206265206e6567617469766500000000005f82015250565b5f6102e5601b836102a1565b91506102f0826102b1565b602082019050919050565b5f6020820190508181035f830152610312816102d9565b9050919050565b7f4e487b71000000000000000000000000000000000000000000000000000000005f52601160045260245ffd5b5f61035082610218565b91505f820361036257610361610319565b5b600182039050919050565b5f61037782610218565b91507fffffffffffffffffffffffffffffffffffffffffffffffffffffffffffffffff82036103a9576103a8610319565b5b600182019050919050565b7f4f6e6c79206f776e6572206578656375746520746869732066756e6374696f6e5f8201527f2e00000000000000000000000000000000000000000000000000000000000000602082015250565b5f61040e6021836102a1565b9150610419826103b4565b604082019050919050565b5f6020820190508181035f83015261043b81610402565b905091905056fea26469706673582212203a8309e6884eb25f720e79218dd66ed304faf7df40c083ac1f726e57c2e0b40664736f6c63430008150033",
  "immutableReferences": {},
  "source": "// SPDX-License-Identifier: UNLICENSED\npragma solidity ^0.8.13;\n\ncontract SimpleCounter {\n    uint256 public counter;\n    address public owner;\n    constructor() {\n        counter=0;\n        owner = msg.sender;\n    }\n    \n    modifier onlyOwner()\n    {\n        require(msg.sender == owner,\"Only owner execute this function.\");\n        _;\n    }\n\n    function increment() public\n    {\n        counter++;\n    }\n\n    function decrement() public\n    {\n        require(counter>0,\"Counter can not be negative\");\n        counter--;\n    }\n\n    function reset() public onlyOwner \n    {\n        counter= 0;\n    }\n\n    function getCounter() public view returns(uint)\n    {\n        return counter;\n    }\n}\n",
  "sourcePath": "E:\\SmartContract\\increment\\contracts\\Contract.sol",
  "compiler": {
    "name": "solc",
    "version": "0.8.21+commit.d9974bed.Emscripten.clang"
  },
  "schemaVersion": "3.4.16",
  "updatedAt": "2024-04-21T14:41:16.275Z",
  "devdoc": {
    "kind": "dev",
    "methods": {},
    "version": 1
  },
  "userdoc": {
    "kind": "user",
    "methods": {},
    "version": 1
  }
}